:100000000C9446000C9465000C9465000C946500FB
:100010000C9465000C9465000C9465000C946500CC
:100020000C9465000C9465000C9465000C946500BC
:100030000C9465000C9410010C9465000C94650000
:100040000C9465000C9465000C9465000C9465009C
:100050000C9465000C9465000C9465000C9465008C
:100060000C9465000C9465000C9465000C9465007C
:100070000C9465000C9465000C9465000C9465006C
:100080000C9465000C9465000C94650011241FBE4F
:10009000CFEFD0E4DEBFCDBF11E0A0E0B1E0ECE1F6
:1000A000F4E000E00BBF02C007900D92A431B1074D
:1000B000D9F711E0A4E1B1E001C01D92AB31B10765
:1000C000E1F70E94E3010C940C020C940000CF9322
:1000D000C82F8A3019F48DE00E9467009091C0000B
:1000E00095FFFCCFC093C60080E090E0CF910895CB
:1000F00040E050E00CC000002F5F3F4F02C020E006
:1001000030E0273063E03607B4F34F5F5F4F4817A6
:100110005907ACF308955E9888B95F9A00005F981C
:1001200082E090E00E947800089581E00E948B00B8
:100130000895813120F481580E948B0008958155E3
:100140000E948B00089584E690E00E94780088E386
:100150000E948B0086E00E948B008FE00E948B0043
:1001600081E00E948B008AE090E00E947800089570
:100170005E9A88B95F9A00005F9881E090E00E94E3
:1001800078000895EF92FF920F931F93CF93DF9320
:10019000182FEB010E9495000EC001E0010F812F86
:1001A0000E9499007E018FEFE81AF80A88810E9468
:1001B000B800102FE70188818111EFCFDF91CF9137
:1001C0001F910F91FF90EF9008958BE08093810035
:1001D0008DE790E0909389008093880082E080937F
:1001E0006F0010928500109284008091010190911F
:1001F0000201A0910301B091040180931401909336
:100200001501A0931601B09317018FB780688FBFB7
:10021000089510928100089581E080931801089557
:100220001F920F920FB60F9211240BB60F922F93BD
:100230003F934F935F936F937F938F939F93AF936E
:10024000BF93EF93FF938091140190911501A091BA
:100250001601B09117010197A109B109809314010A
:1002600090931501A0931601B0931701892B8A2B47
:100270008B2B91F40E940C0180910101909102015D
:10028000A0910301B0910401809314019093150192
:10029000A0931601B0931701FF91EF91BF91AF9119
:1002A0009F918F917F916F915F914F913F912F918E
:1002B0000F900BBE0F900FBE0F901F90189560937C
:1002C00001017093020180930301909304016093F4
:1002D00014017093150180931601909317010895EE
:1002E0008091190190911A0182309105D9F128F479
:1002F000009749F0019779F143C083309105C9F126
:10030000049741F03DC084E090E090931A018093FF
:1003100019013AC080B190E080959095837099273B
:10032000039739F483E090E090931A0180931901C8
:100330002BC0019907C082E090E090931A0180934E
:10034000190122C0009920C081E090E090931A0129
:100350008093190119C084E090E090931A01809372
:10036000190112C084E090E090931A018093190162
:100370000BC084E090E090931A018093190104C0AF
:1003800010921A01109219018091190190911A018D
:100390008230910569F08330910591F0019791F4D5
:1003A00080910001893070F48F5F8093000108957F
:1003B00080910001882331F08150809300010895DD
:1003C00010920001089511B88FEF82B987B918B85B
:1003D0008AB91BB86BE470E080E090E00E945F0196
:1003E0000E94E50010921A011092190187E0809393
:1003F00000010E94A3000E94700181E00E94990008
:1004000080910001805D0E94B800809118018823CE
:0C041000E1F310921801EFCFF894FFCF39
:10041C00070100000000000002000000006700005F
:04042C0000000000CC
:00000001FF
